{
    "_format": "hh-sol-artifact-1",
    "contractName": "Domains",
    "sourceName": "contracts/Domain.sol",
    "abi": [
        {
            "inputs": [
                {
                    "internalType": "string",
                    "name": "_tld",
                    "type": "string"
                }
            ],
            "stateMutability": "payable",
            "type": "constructor"
        },
        {
            "anonymous": false,
            "inputs": [
                {
                    "indexed": true,
                    "internalType": "address",
                    "name": "owner",
                    "type": "address"
                },
                {
                    "indexed": true,
                    "internalType": "address",
                    "name": "approved",
                    "type": "address"
                },
                {
                    "indexed": true,
                    "internalType": "uint256",
                    "name": "tokenId",
                    "type": "uint256"
                }
            ],
            "name": "Approval",
            "type": "event"
        },
        {
            "anonymous": false,
            "inputs": [
                {
                    "indexed": true,
                    "internalType": "address",
                    "name": "owner",
                    "type": "address"
                },
                {
                    "indexed": true,
                    "internalType": "address",
                    "name": "operator",
                    "type": "address"
                },
                {
                    "indexed": false,
                    "internalType": "bool",
                    "name": "approved",
                    "type": "bool"
                }
            ],
            "name": "ApprovalForAll",
            "type": "event"
        },
        {
            "anonymous": false,
            "inputs": [
                {
                    "indexed": true,
                    "internalType": "address",
                    "name": "from",
                    "type": "address"
                },
                {
                    "indexed": true,
                    "internalType": "address",
                    "name": "to",
                    "type": "address"
                },
                {
                    "indexed": true,
                    "internalType": "uint256",
                    "name": "tokenId",
                    "type": "uint256"
                }
            ],
            "name": "Transfer",
            "type": "event"
        },
        {
            "inputs": [
                {
                    "internalType": "address",
                    "name": "to",
                    "type": "address"
                },
                {
                    "internalType": "uint256",
                    "name": "tokenId",
                    "type": "uint256"
                }
            ],
            "name": "approve",
            "outputs": [],
            "stateMutability": "nonpayable",
            "type": "function"
        },
        {
            "inputs": [
                {
                    "internalType": "address",
                    "name": "owner",
                    "type": "address"
                }
            ],
            "name": "balanceOf",
            "outputs": [
                {
                    "internalType": "uint256",
                    "name": "",
                    "type": "uint256"
                }
            ],
            "stateMutability": "view",
            "type": "function"
        },
        {
            "inputs": [
                {
                    "internalType": "string",
                    "name": "",
                    "type": "string"
                }
            ],
            "name": "domains",
            "outputs": [
                {
                    "internalType": "address",
                    "name": "",
                    "type": "address"
                }
            ],
            "stateMutability": "view",
            "type": "function"
        },
        {
            "inputs": [
                {
                    "internalType": "string",
                    "name": "name",
                    "type": "string"
                }
            ],
            "name": "getAddress",
            "outputs": [
                {
                    "internalType": "address",
                    "name": "",
                    "type": "address"
                }
            ],
            "stateMutability": "view",
            "type": "function"
        },
        {
            "inputs": [
                {
                    "internalType": "uint256",
                    "name": "tokenId",
                    "type": "uint256"
                }
            ],
            "name": "getApproved",
            "outputs": [
                {
                    "internalType": "address",
                    "name": "",
                    "type": "address"
                }
            ],
            "stateMutability": "view",
            "type": "function"
        },
        {
            "inputs": [
                {
                    "internalType": "string",
                    "name": "name",
                    "type": "string"
                }
            ],
            "name": "getRecord",
            "outputs": [
                {
                    "internalType": "string",
                    "name": "",
                    "type": "string"
                }
            ],
            "stateMutability": "view",
            "type": "function"
        },
        {
            "inputs": [
                {
                    "internalType": "address",
                    "name": "owner",
                    "type": "address"
                },
                {
                    "internalType": "address",
                    "name": "operator",
                    "type": "address"
                }
            ],
            "name": "isApprovedForAll",
            "outputs": [
                {
                    "internalType": "bool",
                    "name": "",
                    "type": "bool"
                }
            ],
            "stateMutability": "view",
            "type": "function"
        },
        {
            "inputs": [],
            "name": "isOwner",
            "outputs": [
                {
                    "internalType": "bool",
                    "name": "",
                    "type": "bool"
                }
            ],
            "stateMutability": "view",
            "type": "function"
        },
        {
            "inputs": [],
            "name": "name",
            "outputs": [
                {
                    "internalType": "string",
                    "name": "",
                    "type": "string"
                }
            ],
            "stateMutability": "view",
            "type": "function"
        },
        {
            "inputs": [],
            "name": "owner",
            "outputs": [
                {
                    "internalType": "address payable",
                    "name": "",
                    "type": "address"
                }
            ],
            "stateMutability": "view",
            "type": "function"
        },
        {
            "inputs": [
                {
                    "internalType": "uint256",
                    "name": "tokenId",
                    "type": "uint256"
                }
            ],
            "name": "ownerOf",
            "outputs": [
                {
                    "internalType": "address",
                    "name": "",
                    "type": "address"
                }
            ],
            "stateMutability": "view",
            "type": "function"
        },
        {
            "inputs": [
                {
                    "internalType": "string",
                    "name": "name",
                    "type": "string"
                }
            ],
            "name": "price",
            "outputs": [
                {
                    "internalType": "uint256",
                    "name": "",
                    "type": "uint256"
                }
            ],
            "stateMutability": "pure",
            "type": "function"
        },
        {
            "inputs": [
                {
                    "internalType": "string",
                    "name": "",
                    "type": "string"
                }
            ],
            "name": "records",
            "outputs": [
                {
                    "internalType": "string",
                    "name": "",
                    "type": "string"
                }
            ],
            "stateMutability": "view",
            "type": "function"
        },
        {
            "inputs": [
                {
                    "internalType": "string",
                    "name": "name",
                    "type": "string"
                }
            ],
            "name": "register",
            "outputs": [],
            "stateMutability": "payable",
            "type": "function"
        },
        {
            "inputs": [
                {
                    "internalType": "address",
                    "name": "from",
                    "type": "address"
                },
                {
                    "internalType": "address",
                    "name": "to",
                    "type": "address"
                },
                {
                    "internalType": "uint256",
                    "name": "tokenId",
                    "type": "uint256"
                }
            ],
            "name": "safeTransferFrom",
            "outputs": [],
            "stateMutability": "nonpayable",
            "type": "function"
        },
        {
            "inputs": [
                {
                    "internalType": "address",
                    "name": "from",
                    "type": "address"
                },
                {
                    "internalType": "address",
                    "name": "to",
                    "type": "address"
                },
                {
                    "internalType": "uint256",
                    "name": "tokenId",
                    "type": "uint256"
                },
                {
                    "internalType": "bytes",
                    "name": "_data",
                    "type": "bytes"
                }
            ],
            "name": "safeTransferFrom",
            "outputs": [],
            "stateMutability": "nonpayable",
            "type": "function"
        },
        {
            "inputs": [
                {
                    "internalType": "address",
                    "name": "operator",
                    "type": "address"
                },
                {
                    "internalType": "bool",
                    "name": "approved",
                    "type": "bool"
                }
            ],
            "name": "setApprovalForAll",
            "outputs": [],
            "stateMutability": "nonpayable",
            "type": "function"
        },
        {
            "inputs": [
                {
                    "internalType": "string",
                    "name": "name",
                    "type": "string"
                },
                {
                    "internalType": "string",
                    "name": "record",
                    "type": "string"
                }
            ],
            "name": "setRecord",
            "outputs": [],
            "stateMutability": "nonpayable",
            "type": "function"
        },
        {
            "inputs": [
                {
                    "internalType": "bytes4",
                    "name": "interfaceId",
                    "type": "bytes4"
                }
            ],
            "name": "supportsInterface",
            "outputs": [
                {
                    "internalType": "bool",
                    "name": "",
                    "type": "bool"
                }
            ],
            "stateMutability": "view",
            "type": "function"
        },
        {
            "inputs": [],
            "name": "symbol",
            "outputs": [
                {
                    "internalType": "string",
                    "name": "",
                    "type": "string"
                }
            ],
            "stateMutability": "view",
            "type": "function"
        },
        {
            "inputs": [],
            "name": "tld",
            "outputs": [
                {
                    "internalType": "string",
                    "name": "",
                    "type": "string"
                }
            ],
            "stateMutability": "view",
            "type": "function"
        },
        {
            "inputs": [
                {
                    "internalType": "uint256",
                    "name": "tokenId",
                    "type": "uint256"
                }
            ],
            "name": "tokenURI",
            "outputs": [
                {
                    "internalType": "string",
                    "name": "",
                    "type": "string"
                }
            ],
            "stateMutability": "view",
            "type": "function"
        },
        {
            "inputs": [
                {
                    "internalType": "address",
                    "name": "from",
                    "type": "address"
                },
                {
                    "internalType": "address",
                    "name": "to",
                    "type": "address"
                },
                {
                    "internalType": "uint256",
                    "name": "tokenId",
                    "type": "uint256"
                }
            ],
            "name": "transferFrom",
            "outputs": [],
            "stateMutability": "nonpayable",
            "type": "function"
        },
        {
            "inputs": [],
            "name": "withdraw",
            "outputs": [],
            "stateMutability": "nonpayable",
            "type": "function"
        }
    ],
    "bytecode": "0x6080604052604051806108a0016040528061086b815260200162004da961086b9139600a908051906020019062000038929190620002c8565b506040518060400160405280600d81526020017f3c2f746578743e3c2f7376673e00000000000000000000000000000000000000815250600b908051906020019062000086929190620002c8565b5060405162005614380380620056148339818101604052810190620000ac919062000515565b6040518060400160405280601281526020017f4e696e6a61204e616d65205365727669636500000000000000000000000000008152506040518060400160405280600381526020017f4e4e530000000000000000000000000000000000000000000000000000000000815250816000908051906020019062000130929190620002c8565b50806001908051906020019062000149929190620002c8565b50505033600760006101000a81548173ffffffffffffffffffffffffffffffffffffffff021916908373ffffffffffffffffffffffffffffffffffffffff1602179055508060099080519060200190620001a5929190620002c8565b50620001f26040518060400160405280601881526020017f2573206e616d652073657276696365206465706c6f796564000000000000000081525082620001f960201b6200177c1760201c565b5062000663565b6200029b828260405160240162000212929190620005c3565b6040516020818303038152906040527f4b5c4277000000000000000000000000000000000000000000000000000000007bffffffffffffffffffffffffffffffffffffffffffffffffffffffff19166020820180517bffffffffffffffffffffffffffffffffffffffffffffffffffffffff83818316178352505050506200029f60201b60201c565b5050565b60008151905060006a636f6e736f6c652e6c6f679050602083016000808483855afa5050505050565b828054620002d6906200062d565b90600052602060002090601f016020900481019282620002fa576000855562000346565b82601f106200031557805160ff191683800117855562000346565b8280016001018555821562000346579182015b828111156200034557825182559160200191906001019062000328565b5b50905062000355919062000359565b5090565b5b80821115620003745760008160009055506001016200035a565b5090565b6000604051905090565b600080fd5b600080fd5b600080fd5b600080fd5b6000601f19601f8301169050919050565b7f4e487b7100000000000000000000000000000000000000000000000000000000600052604160045260246000fd5b620003e18262000396565b810181811067ffffffffffffffff82111715620004035762000402620003a7565b5b80604052505050565b60006200041862000378565b9050620004268282620003d6565b919050565b600067ffffffffffffffff821115620004495762000448620003a7565b5b620004548262000396565b9050602081019050919050565b60005b838110156200048157808201518184015260208101905062000464565b8381111562000491576000848401525b50505050565b6000620004ae620004a8846200042b565b6200040c565b905082815260208101848484011115620004cd57620004cc62000391565b5b620004da84828562000461565b509392505050565b600082601f830112620004fa57620004f96200038c565b5b81516200050c84826020860162000497565b91505092915050565b6000602082840312156200052e576200052d62000382565b5b600082015167ffffffffffffffff8111156200054f576200054e62000387565b5b6200055d84828501620004e2565b91505092915050565b600081519050919050565b600082825260208201905092915050565b60006200058f8262000566565b6200059b818562000571565b9350620005ad81856020860162000461565b620005b88162000396565b840191505092915050565b60006040820190508181036000830152620005df818562000582565b90508181036020830152620005f5818462000582565b90509392505050565b7f4e487b7100000000000000000000000000000000000000000000000000000000600052602260045260246000fd5b600060028204905060018216806200064657607f821691505b602082108114156200065d576200065c620005fe565b5b50919050565b61473680620006736000396000f3fe60806040526004361061014b5760003560e01c806370a08231116100b6578063bf40fac11161006f578063bf40fac1146104b6578063c1880a98146104f3578063c87b56dd1461051c578063e985e9c514610559578063f2c298be14610596578063fe2c6198146105b25761014b565b806370a08231146103a65780638da5cb5b146103e35780638f32d59b1461040e57806395d89b4114610439578063a22cb46514610464578063b88d4fde1461048d5761014b565b8063264492351161010857806326449235146102845780632d551432146102c15780633ccfd60b146102ec57806342842e0e14610303578063541e771d1461032c5780636352211e146103695761014b565b806301ffc9a71461015057806306fdde031461018d578063081812fc146101b8578063095ea7b3146101f557806311dd88451461021e57806323b872dd1461025b575b600080fd5b34801561015c57600080fd5b5061017760048036038101906101729190612c5e565b6105ef565b6040516101849190612ca6565b60405180910390f35b34801561019957600080fd5b506101a26106d1565b6040516101af9190612d5a565b60405180910390f35b3480156101c457600080fd5b506101df60048036038101906101da9190612db2565b610763565b6040516101ec9190612e20565b60405180910390f35b34801561020157600080fd5b5061021c60048036038101906102179190612e67565b6107e8565b005b34801561022a57600080fd5b5061024560048036038101906102409190612f0c565b610900565b6040516102529190612d5a565b60405180910390f35b34801561026757600080fd5b50610282600480360381019061027d9190612f59565b6109b3565b005b34801561029057600080fd5b506102ab60048036038101906102a691906130dc565b610a13565b6040516102b89190612e20565b60405180910390f35b3480156102cd57600080fd5b506102d6610a5c565b6040516102e39190612d5a565b60405180910390f35b3480156102f857600080fd5b50610301610aea565b005b34801561030f57600080fd5b5061032a60048036038101906103259190612f59565b610bb0565b005b34801561033857600080fd5b50610353600480360381019061034e91906130dc565b610bd0565b6040516103609190612d5a565b60405180910390f35b34801561037557600080fd5b50610390600480360381019061038b9190612db2565b610c86565b60405161039d9190612e20565b60405180910390f35b3480156103b257600080fd5b506103cd60048036038101906103c89190613125565b610d38565b6040516103da9190613161565b60405180910390f35b3480156103ef57600080fd5b506103f8610df0565b604051610405919061319d565b60405180910390f35b34801561041a57600080fd5b50610423610e16565b6040516104309190612ca6565b60405180910390f35b34801561044557600080fd5b5061044e610e6e565b60405161045b9190612d5a565b60405180910390f35b34801561047057600080fd5b5061048b600480360381019061048691906131e4565b610f00565b005b34801561049957600080fd5b506104b460048036038101906104af91906132c5565b610f16565b005b3480156104c257600080fd5b506104dd60048036038101906104d89190612f0c565b610f78565b6040516104ea9190612e20565b60405180910390f35b3480156104ff57600080fd5b5061051a60048036038101906105159190613348565b610fc3565b005b34801561052857600080fd5b50610543600480360381019061053e9190612db2565b611071565b6040516105509190612d5a565b60405180910390f35b34801561056557600080fd5b50610580600480360381019061057b91906133c9565b6111c3565b60405161058d9190612ca6565b60405180910390f35b6105b060048036038101906105ab9190612f0c565b611257565b005b3480156105be57600080fd5b506105d960048036038101906105d49190612f0c565b6116d6565b6040516105e69190613161565b60405180910390f35b60007f80ac58cd000000000000000000000000000000000000000000000000000000007bffffffffffffffffffffffffffffffffffffffffffffffffffffffff1916827bffffffffffffffffffffffffffffffffffffffffffffffffffffffff191614806106ba57507f5b5e139f000000000000000000000000000000000000000000000000000000007bffffffffffffffffffffffffffffffffffffffffffffffffffffffff1916827bffffffffffffffffffffffffffffffffffffffffffffffffffffffff1916145b806106ca57506106c982611818565b5b9050919050565b6060600080546106e090613438565b80601f016020809104026020016040519081016040528092919081815260200182805461070c90613438565b80156107595780601f1061072e57610100808354040283529160200191610759565b820191906000526020600020905b81548152906001019060200180831161073c57829003601f168201915b5050505050905090565b600061076e82611882565b6107ad576040517f08c379a00000000000000000000000000000000000000000000000000000000081526004016107a4906134dc565b60405180910390fd5b6004600083815260200190815260200160002060009054906101000a900473ffffffffffffffffffffffffffffffffffffffff169050919050565b60006107f382610c86565b90508073ffffffffffffffffffffffffffffffffffffffff168373ffffffffffffffffffffffffffffffffffffffff161415610864576040517f08c379a000000000000000000000000000000000000000000000000000000000815260040161085b9061356e565b60405180910390fd5b8073ffffffffffffffffffffffffffffffffffffffff166108836118ee565b73ffffffffffffffffffffffffffffffffffffffff1614806108b257506108b1816108ac6118ee565b6111c3565b5b6108f1576040517f08c379a00000000000000000000000000000000000000000000000000000000081526004016108e890613600565b60405180910390fd5b6108fb83836118f6565b505050565b6060600d8383604051610914929190613650565b9081526020016040518091039020805461092d90613438565b80601f016020809104026020016040519081016040528092919081815260200182805461095990613438565b80156109a65780601f1061097b576101008083540402835291602001916109a6565b820191906000526020600020905b81548152906001019060200180831161098957829003601f168201915b5050505050905092915050565b6109c46109be6118ee565b826119af565b610a03576040517f08c379a00000000000000000000000000000000000000000000000000000000081526004016109fa906136db565b60405180910390fd5b610a0e838383611a8d565b505050565b600c818051602081018201805184825260208301602085012081835280955050505050506000915054906101000a900473ffffffffffffffffffffffffffffffffffffffff1681565b60098054610a6990613438565b80601f0160208091040260200160405190810160405280929190818152602001828054610a9590613438565b8015610ae25780601f10610ab757610100808354040283529160200191610ae2565b820191906000526020600020905b815481529060010190602001808311610ac557829003601f168201915b505050505081565b610af2610e16565b610afb57600080fd5b600047905060003373ffffffffffffffffffffffffffffffffffffffff1682604051610b269061372c565b60006040518083038185875af1925050503d8060008114610b63576040519150601f19603f3d011682016040523d82523d6000602084013e610b68565b606091505b5050905080610bac576040517f08c379a0000000000000000000000000000000000000000000000000000000008152600401610ba39061378d565b60405180910390fd5b5050565b610bcb83838360405180602001604052806000815250610f16565b505050565b600d818051602081018201805184825260208301602085012081835280955050505050506000915090508054610c0590613438565b80601f0160208091040260200160405190810160405280929190818152602001828054610c3190613438565b8015610c7e5780601f10610c5357610100808354040283529160200191610c7e565b820191906000526020600020905b815481529060010190602001808311610c6157829003601f168201915b505050505081565b6000806002600084815260200190815260200160002060009054906101000a900473ffffffffffffffffffffffffffffffffffffffff169050600073ffffffffffffffffffffffffffffffffffffffff168173ffffffffffffffffffffffffffffffffffffffff161415610d2f576040517f08c379a0000000000000000000000000000000000000000000000000000000008152600401610d269061381f565b60405180910390fd5b80915050919050565b60008073ffffffffffffffffffffffffffffffffffffffff168273ffffffffffffffffffffffffffffffffffffffff161415610da9576040517f08c379a0000000000000000000000000000000000000000000000000000000008152600401610da0906138b1565b60405180910390fd5b600360008373ffffffffffffffffffffffffffffffffffffffff1673ffffffffffffffffffffffffffffffffffffffff168152602001908152602001600020549050919050565b600760009054906101000a900473ffffffffffffffffffffffffffffffffffffffff1681565b6000600760009054906101000a900473ffffffffffffffffffffffffffffffffffffffff1673ffffffffffffffffffffffffffffffffffffffff163373ffffffffffffffffffffffffffffffffffffffff1614905090565b606060018054610e7d90613438565b80601f0160208091040260200160405190810160405280929190818152602001828054610ea990613438565b8015610ef65780601f10610ecb57610100808354040283529160200191610ef6565b820191906000526020600020905b815481529060010190602001808311610ed957829003601f168201915b5050505050905090565b610f12610f0b6118ee565b8383611cf4565b5050565b610f27610f216118ee565b836119af565b610f66576040517f08c379a0000000000000000000000000000000000000000000000000000000008152600401610f5d906136db565b60405180910390fd5b610f7284848484611e61565b50505050565b6000600c8383604051610f8c929190613650565b908152602001604051809103902060009054906101000a900473ffffffffffffffffffffffffffffffffffffffff16905092915050565b3373ffffffffffffffffffffffffffffffffffffffff16600c8585604051610fec929190613650565b908152602001604051809103902060009054906101000a900473ffffffffffffffffffffffffffffffffffffffff1673ffffffffffffffffffffffffffffffffffffffff161461103b57600080fd5b8181600d868660405161104f929190613650565b9081526020016040518091039020919061106a929190612ac9565b5050505050565b606061107c82611882565b6110bb576040517f08c379a00000000000000000000000000000000000000000000000000000000081526004016110b290613943565b60405180910390fd5b60006006600084815260200190815260200160002080546110db90613438565b80601f016020809104026020016040519081016040528092919081815260200182805461110790613438565b80156111545780601f1061112957610100808354040283529160200191611154565b820191906000526020600020905b81548152906001019060200180831161113757829003601f168201915b505050505090506000611165611ebd565b905060008151141561117b5781925050506111be565b6000825111156111b0578082604051602001611198929190613994565b604051602081830303815290604052925050506111be565b6111b984611ed4565b925050505b919050565b6000600560008473ffffffffffffffffffffffffffffffffffffffff1673ffffffffffffffffffffffffffffffffffffffff16815260200190815260200160002060008373ffffffffffffffffffffffffffffffffffffffff1673ffffffffffffffffffffffffffffffffffffffff16815260200190815260200160002060009054906101000a900460ff16905092915050565b600073ffffffffffffffffffffffffffffffffffffffff16600c8383604051611281929190613650565b908152602001604051809103902060009054906101000a900473ffffffffffffffffffffffffffffffffffffffff1673ffffffffffffffffffffffffffffffffffffffff16146112d057600080fd5b60006112dc83836116d6565b905080341015611321576040517f08c379a000000000000000000000000000000000000000000000000000000000815260040161131890613a04565b60405180910390fd5b60008383600960405160200161133993929190613b04565b60405160208183030381529060405290506000600a82600b60405160200161136393929190613b35565b604051602081830303815290604052905060006113806008611f7b565b905060006113d187878080601f016020809104026020016040519081016040528093929190818152602001838380828437600081840152601f19601f82011690508083019250505050505050611f89565b905060006113de8261213e565b905033600c89896040516113f3929190613650565b908152602001604051809103902060006101000a81548173ffffffffffffffffffffffffffffffffffffffff021916908373ffffffffffffffffffffffffffffffffffffffff1602179055506115316040518060600160405280603181526020016146576031913989898080601f016020809104026020016040519081016040528093929190818152602001838380828437600081840152601f19601f82011690508083019250505050505050600980546114ad90613438565b80601f01602080910402602001604051908101604052809291908181526020018280546114d990613438565b80156115265780601f106114fb57610100808354040283529160200191611526565b820191906000526020600020905b81548152906001019060200180831161150957829003601f168201915b50505050508661229f565b6115706040518060400160405280601b81526020017f2573206861732072656769737465726573206120646f6d61696e21000000000081525033612341565b60006115a68661157f876123dd565b8460405160200161159293929190613ce2565b6040516020818303038152906040526123dd565b90506000816040516020016115bb9190613d8b565b60405160208183030381529060405290506115ed60405180606001604052806039815260200161461e60399139612575565b61162c6040518060400160405280600e81526020017f46696e616c20746f6b656e5552490000000000000000000000000000000000008152508261177c565b61164d60405180606001604052806039815260200161468860399139612575565b611657338661260e565b611661858261262c565b33600c8b8b604051611674929190613650565b908152602001604051809103902060006101000a81548173ffffffffffffffffffffffffffffffffffffffff021916908373ffffffffffffffffffffffffffffffffffffffff1602179055506116ca60086126a0565b50505050505050505050565b60008061172684848080601f016020809104026020016040519081016040528093929190818152602001838380828437600081840152601f19601f82011690508083019250505050505050611f89565b90506000811161173557600080fd5b600381141561174f576706f05b59d3b20000915050611776565b600481141561176957670429d069189e0000915050611776565b67016345785d8a00009150505b92915050565b6118148282604051602401611792929190613dad565b6040516020818303038152906040527f4b5c4277000000000000000000000000000000000000000000000000000000007bffffffffffffffffffffffffffffffffffffffffffffffffffffffff19166020820180517bffffffffffffffffffffffffffffffffffffffffffffffffffffffff83818316178352505050506126b6565b5050565b60007f01ffc9a7000000000000000000000000000000000000000000000000000000007bffffffffffffffffffffffffffffffffffffffffffffffffffffffff1916827bffffffffffffffffffffffffffffffffffffffffffffffffffffffff1916149050919050565b60008073ffffffffffffffffffffffffffffffffffffffff166002600084815260200190815260200160002060009054906101000a900473ffffffffffffffffffffffffffffffffffffffff1673ffffffffffffffffffffffffffffffffffffffff1614159050919050565b600033905090565b816004600083815260200190815260200160002060006101000a81548173ffffffffffffffffffffffffffffffffffffffff021916908373ffffffffffffffffffffffffffffffffffffffff160217905550808273ffffffffffffffffffffffffffffffffffffffff1661196983610c86565b73ffffffffffffffffffffffffffffffffffffffff167f8c5be1e5ebec7d5bd14f71427d1e84f3dd0314c0f7b2291e5b200ac8c7c3b92560405160405180910390a45050565b60006119ba82611882565b6119f9576040517f08c379a00000000000000000000000000000000000000000000000000000000081526004016119f090613e56565b60405180910390fd5b6000611a0483610c86565b90508073ffffffffffffffffffffffffffffffffffffffff168473ffffffffffffffffffffffffffffffffffffffff161480611a7357508373ffffffffffffffffffffffffffffffffffffffff16611a5b84610763565b73ffffffffffffffffffffffffffffffffffffffff16145b80611a845750611a8381856111c3565b5b91505092915050565b8273ffffffffffffffffffffffffffffffffffffffff16611aad82610c86565b73ffffffffffffffffffffffffffffffffffffffff1614611b03576040517f08c379a0000000000000000000000000000000000000000000000000000000008152600401611afa90613ee8565b60405180910390fd5b600073ffffffffffffffffffffffffffffffffffffffff168273ffffffffffffffffffffffffffffffffffffffff161415611b73576040517f08c379a0000000000000000000000000000000000000000000000000000000008152600401611b6a90613f7a565b60405180910390fd5b611b7e8383836126df565b611b896000826118f6565b6001600360008573ffffffffffffffffffffffffffffffffffffffff1673ffffffffffffffffffffffffffffffffffffffff1681526020019081526020016000206000828254611bd99190613fc9565b925050819055506001600360008473ffffffffffffffffffffffffffffffffffffffff1673ffffffffffffffffffffffffffffffffffffffff1681526020019081526020016000206000828254611c309190613ffd565b92505081905550816002600083815260200190815260200160002060006101000a81548173ffffffffffffffffffffffffffffffffffffffff021916908373ffffffffffffffffffffffffffffffffffffffff160217905550808273ffffffffffffffffffffffffffffffffffffffff168473ffffffffffffffffffffffffffffffffffffffff167fddf252ad1be2c89b69c2b068fc378daa952ba7f163c4a11628f55a4df523b3ef60405160405180910390a4611cef8383836126e4565b505050565b8173ffffffffffffffffffffffffffffffffffffffff168373ffffffffffffffffffffffffffffffffffffffff161415611d63576040517f08c379a0000000000000000000000000000000000000000000000000000000008152600401611d5a9061409f565b60405180910390fd5b80600560008573ffffffffffffffffffffffffffffffffffffffff1673ffffffffffffffffffffffffffffffffffffffff16815260200190815260200160002060008473ffffffffffffffffffffffffffffffffffffffff1673ffffffffffffffffffffffffffffffffffffffff16815260200190815260200160002060006101000a81548160ff0219169083151502179055508173ffffffffffffffffffffffffffffffffffffffff168373ffffffffffffffffffffffffffffffffffffffff167f17307eab39ab6107e8899845ad3d59bd9653f200f220920489ca2b5937696c3183604051611e549190612ca6565b60405180910390a3505050565b611e6c848484611a8d565b611e78848484846126e9565b611eb7576040517f08c379a0000000000000000000000000000000000000000000000000000000008152600401611eae90614131565b60405180910390fd5b50505050565b606060405180602001604052806000815250905090565b6060611edf82611882565b611f1e576040517f08c379a0000000000000000000000000000000000000000000000000000000008152600401611f15906141c3565b60405180910390fd5b6000611f28611ebd565b90506000815111611f485760405180602001604052806000815250611f73565b80611f528461213e565b604051602001611f63929190613994565b6040516020818303038152906040525b915050919050565b600081600001549050919050565b60008060008084519050600092505b80821015612133576000858381518110611fb557611fb46141e3565b5b602001015160f81c60f81b9050608060f81b817effffffffffffffffffffffffffffffffffffffffffffffffffffffffffffff1916101561200457600183611ffd9190613ffd565b925061211f565b60e060f81b817effffffffffffffffffffffffffffffffffffffffffffffffffffffffffffff191610156120465760028361203f9190613ffd565b925061211e565b60f060f81b817effffffffffffffffffffffffffffffffffffffffffffffffffffffffffffff19161015612088576003836120819190613ffd565b925061211d565b60f8801b817effffffffffffffffffffffffffffffffffffffffffffffffffffffffffffff191610156120c9576004836120c29190613ffd565b925061211c565b60fc60f81b817effffffffffffffffffffffffffffffffffffffffffffffffffffffffffffff1916101561210b576005836121049190613ffd565b925061211b565b6006836121189190613ffd565b92505b5b5b5b5b50828061212b90614212565b935050611f98565b829350505050919050565b60606000821415612186576040518060400160405280600181526020017f3000000000000000000000000000000000000000000000000000000000000000815250905061229a565b600082905060005b600082146121b85780806121a190614212565b915050600a826121b1919061428a565b915061218e565b60008167ffffffffffffffff8111156121d4576121d3612fb1565b5b6040519080825280601f01601f1916602001820160405280156122065781602001600182028036833780820191505090505b5090505b600085146122935760018261221f9190613fc9565b9150600a8561222e91906142bb565b603061223a9190613ffd565b60f81b8183815181106122505761224f6141e3565b5b60200101907effffffffffffffffffffffffffffffffffffffffffffffffffffffffffffff1916908160001a905350600a8561228c919061428a565b945061220a565b8093505050505b919050565b61233b848484846040516024016122b994939291906142ec565b6040516020818303038152906040527f9fd009f5000000000000000000000000000000000000000000000000000000007bffffffffffffffffffffffffffffffffffffffffffffffffffffffff19166020820180517bffffffffffffffffffffffffffffffffffffffffffffffffffffffff83818316178352505050506126b6565b50505050565b6123d98282604051602401612357929190614346565b6040516020818303038152906040527f319af333000000000000000000000000000000000000000000000000000000007bffffffffffffffffffffffffffffffffffffffffffffffffffffffff19166020820180517bffffffffffffffffffffffffffffffffffffffffffffffffffffffff83818316178352505050506126b6565b5050565b606060008251905060008114156124065760405180602001604052806000815250915050612570565b600060036002836124179190613ffd565b612421919061428a565b600461242d9190614376565b9050600060208261243e9190613ffd565b67ffffffffffffffff81111561245757612456612fb1565b5b6040519080825280601f01601f1916602001820160405280156124895781602001600182028036833780820191505090505b50905060006040518060600160405280604081526020016146c1604091399050600181016020830160005b8681101561252d5760038101905062ffffff818a015116603f8160121c168401518060081b905060ff603f83600c1c1686015116810190508060081b905060ff603f8360061c1686015116810190508060081b905060ff603f831686015116810190508060e01b905080845260048401935050506124b4565b506003860660018114612547576002811461255757612562565b613d3d60f01b6002830352612562565b603d60f81b60018303525b508484525050819450505050505b919050565b61260b816040516024016125899190612d5a565b6040516020818303038152906040527f41304fac000000000000000000000000000000000000000000000000000000007bffffffffffffffffffffffffffffffffffffffffffffffffffffffff19166020820180517bffffffffffffffffffffffffffffffffffffffffffffffffffffffff83818316178352505050506126b6565b50565b612628828260405180602001604052806000815250612871565b5050565b61263582611882565b612674576040517f08c379a000000000000000000000000000000000000000000000000000000000815260040161266b90614442565b60405180910390fd5b8060066000848152602001908152602001600020908051906020019061269b929190612b4f565b505050565b6001816000016000828254019250508190555050565b60008151905060006a636f6e736f6c652e6c6f679050602083016000808483855afa5050505050565b505050565b505050565b600061270a8473ffffffffffffffffffffffffffffffffffffffff166128cc565b15612864578373ffffffffffffffffffffffffffffffffffffffff1663150b7a026127336118ee565b8786866040518563ffffffff1660e01b815260040161275594939291906144b7565b6020604051808303816000875af192505050801561279157506040513d601f19601f8201168201806040525081019061278e9190614518565b60015b612814573d80600081146127c1576040519150601f19603f3d011682016040523d82523d6000602084013e6127c6565b606091505b5060008151141561280c576040517f08c379a000000000000000000000000000000000000000000000000000000000815260040161280390614131565b60405180910390fd5b805181602001fd5b63150b7a0260e01b7bffffffffffffffffffffffffffffffffffffffffffffffffffffffff1916817bffffffffffffffffffffffffffffffffffffffffffffffffffffffff191614915050612869565b600190505b949350505050565b61287b83836128ef565b61288860008484846126e9565b6128c7576040517f08c379a00000000000000000000000000000000000000000000000000000000081526004016128be90614131565b60405180910390fd5b505050565b6000808273ffffffffffffffffffffffffffffffffffffffff163b119050919050565b600073ffffffffffffffffffffffffffffffffffffffff168273ffffffffffffffffffffffffffffffffffffffff16141561295f576040517f08c379a000000000000000000000000000000000000000000000000000000000815260040161295690614591565b60405180910390fd5b61296881611882565b156129a8576040517f08c379a000000000000000000000000000000000000000000000000000000000815260040161299f906145fd565b60405180910390fd5b6129b4600083836126df565b6001600360008473ffffffffffffffffffffffffffffffffffffffff1673ffffffffffffffffffffffffffffffffffffffff1681526020019081526020016000206000828254612a049190613ffd565b92505081905550816002600083815260200190815260200160002060006101000a81548173ffffffffffffffffffffffffffffffffffffffff021916908373ffffffffffffffffffffffffffffffffffffffff160217905550808273ffffffffffffffffffffffffffffffffffffffff16600073ffffffffffffffffffffffffffffffffffffffff167fddf252ad1be2c89b69c2b068fc378daa952ba7f163c4a11628f55a4df523b3ef60405160405180910390a4612ac5600083836126e4565b5050565b828054612ad590613438565b90600052602060002090601f016020900481019282612af75760008555612b3e565b82601f10612b1057803560ff1916838001178555612b3e565b82800160010185558215612b3e579182015b82811115612b3d578235825591602001919060010190612b22565b5b509050612b4b9190612bd5565b5090565b828054612b5b90613438565b90600052602060002090601f016020900481019282612b7d5760008555612bc4565b82601f10612b9657805160ff1916838001178555612bc4565b82800160010185558215612bc4579182015b82811115612bc3578251825591602001919060010190612ba8565b5b509050612bd19190612bd5565b5090565b5b80821115612bee576000816000905550600101612bd6565b5090565b6000604051905090565b600080fd5b600080fd5b60007fffffffff0000000000000000000000000000000000000000000000000000000082169050919050565b612c3b81612c06565b8114612c4657600080fd5b50565b600081359050612c5881612c32565b92915050565b600060208284031215612c7457612c73612bfc565b5b6000612c8284828501612c49565b91505092915050565b60008115159050919050565b612ca081612c8b565b82525050565b6000602082019050612cbb6000830184612c97565b92915050565b600081519050919050565b600082825260208201905092915050565b60005b83811015612cfb578082015181840152602081019050612ce0565b83811115612d0a576000848401525b50505050565b6000601f19601f8301169050919050565b6000612d2c82612cc1565b612d368185612ccc565b9350612d46818560208601612cdd565b612d4f81612d10565b840191505092915050565b60006020820190508181036000830152612d748184612d21565b905092915050565b6000819050919050565b612d8f81612d7c565b8114612d9a57600080fd5b50565b600081359050612dac81612d86565b92915050565b600060208284031215612dc857612dc7612bfc565b5b6000612dd684828501612d9d565b91505092915050565b600073ffffffffffffffffffffffffffffffffffffffff82169050919050565b6000612e0a82612ddf565b9050919050565b612e1a81612dff565b82525050565b6000602082019050612e356000830184612e11565b92915050565b612e4481612dff565b8114612e4f57600080fd5b50565b600081359050612e6181612e3b565b92915050565b60008060408385031215612e7e57612e7d612bfc565b5b6000612e8c85828601612e52565b9250506020612e9d85828601612d9d565b9150509250929050565b600080fd5b600080fd5b600080fd5b60008083601f840112612ecc57612ecb612ea7565b5b8235905067ffffffffffffffff811115612ee957612ee8612eac565b5b602083019150836001820283011115612f0557612f04612eb1565b5b9250929050565b60008060208385031215612f2357612f22612bfc565b5b600083013567ffffffffffffffff811115612f4157612f40612c01565b5b612f4d85828601612eb6565b92509250509250929050565b600080600060608486031215612f7257612f71612bfc565b5b6000612f8086828701612e52565b9350506020612f9186828701612e52565b9250506040612fa286828701612d9d565b9150509250925092565b600080fd5b7f4e487b7100000000000000000000000000000000000000000000000000000000600052604160045260246000fd5b612fe982612d10565b810181811067ffffffffffffffff8211171561300857613007612fb1565b5b80604052505050565b600061301b612bf2565b90506130278282612fe0565b919050565b600067ffffffffffffffff82111561304757613046612fb1565b5b61305082612d10565b9050602081019050919050565b82818337600083830152505050565b600061307f61307a8461302c565b613011565b90508281526020810184848401111561309b5761309a612fac565b5b6130a684828561305d565b509392505050565b600082601f8301126130c3576130c2612ea7565b5b81356130d384826020860161306c565b91505092915050565b6000602082840312156130f2576130f1612bfc565b5b600082013567ffffffffffffffff8111156131105761310f612c01565b5b61311c848285016130ae565b91505092915050565b60006020828403121561313b5761313a612bfc565b5b600061314984828501612e52565b91505092915050565b61315b81612d7c565b82525050565b60006020820190506131766000830184613152565b92915050565b600061318782612ddf565b9050919050565b6131978161317c565b82525050565b60006020820190506131b2600083018461318e565b92915050565b6131c181612c8b565b81146131cc57600080fd5b50565b6000813590506131de816131b8565b92915050565b600080604083850312156131fb576131fa612bfc565b5b600061320985828601612e52565b925050602061321a858286016131cf565b9150509250929050565b600067ffffffffffffffff82111561323f5761323e612fb1565b5b61324882612d10565b9050602081019050919050565b600061326861326384613224565b613011565b90508281526020810184848401111561328457613283612fac565b5b61328f84828561305d565b509392505050565b600082601f8301126132ac576132ab612ea7565b5b81356132bc848260208601613255565b91505092915050565b600080600080608085870312156132df576132de612bfc565b5b60006132ed87828801612e52565b94505060206132fe87828801612e52565b935050604061330f87828801612d9d565b925050606085013567ffffffffffffffff8111156133305761332f612c01565b5b61333c87828801613297565b91505092959194509250565b6000806000806040858703121561336257613361612bfc565b5b600085013567ffffffffffffffff8111156133805761337f612c01565b5b61338c87828801612eb6565b9450945050602085013567ffffffffffffffff8111156133af576133ae612c01565b5b6133bb87828801612eb6565b925092505092959194509250565b600080604083850312156133e0576133df612bfc565b5b60006133ee85828601612e52565b92505060206133ff85828601612e52565b9150509250929050565b7f4e487b7100000000000000000000000000000000000000000000000000000000600052602260045260246000fd5b6000600282049050600182168061345057607f821691505b6020821081141561346457613463613409565b5b50919050565b7f4552433732313a20617070726f76656420717565727920666f72206e6f6e657860008201527f697374656e7420746f6b656e0000000000000000000000000000000000000000602082015250565b60006134c6602c83612ccc565b91506134d18261346a565b604082019050919050565b600060208201905081810360008301526134f5816134b9565b9050919050565b7f4552433732313a20617070726f76616c20746f2063757272656e74206f776e6560008201527f7200000000000000000000000000000000000000000000000000000000000000602082015250565b6000613558602183612ccc565b9150613563826134fc565b604082019050919050565b600060208201905081810360008301526135878161354b565b9050919050565b7f4552433732313a20617070726f76652063616c6c6572206973206e6f74206f7760008201527f6e6572206e6f7220617070726f76656420666f7220616c6c0000000000000000602082015250565b60006135ea603883612ccc565b91506135f58261358e565b604082019050919050565b60006020820190508181036000830152613619816135dd565b9050919050565b600081905092915050565b60006136378385613620565b935061364483858461305d565b82840190509392505050565b600061365d82848661362b565b91508190509392505050565b7f4552433732313a207472616e736665722063616c6c6572206973206e6f74206f60008201527f776e6572206e6f7220617070726f766564000000000000000000000000000000602082015250565b60006136c5603183612ccc565b91506136d082613669565b604082019050919050565b600060208201905081810360008301526136f4816136b8565b9050919050565b600081905092915050565b50565b60006137166000836136fb565b915061372182613706565b600082019050919050565b600061373782613709565b9150819050919050565b7f4661696c656420746f207769746864726177204d617469630000000000000000600082015250565b6000613777601883612ccc565b915061378282613741565b602082019050919050565b600060208201905081810360008301526137a68161376a565b9050919050565b7f4552433732313a206f776e657220717565727920666f72206e6f6e657869737460008201527f656e7420746f6b656e0000000000000000000000000000000000000000000000602082015250565b6000613809602983612ccc565b9150613814826137ad565b604082019050919050565b60006020820190508181036000830152613838816137fc565b9050919050565b7f4552433732313a2062616c616e636520717565727920666f7220746865207a6560008201527f726f206164647265737300000000000000000000000000000000000000000000602082015250565b600061389b602a83612ccc565b91506138a68261383f565b604082019050919050565b600060208201905081810360008301526138ca8161388e565b9050919050565b7f45524337323155524953746f726167653a2055524920717565727920666f722060008201527f6e6f6e6578697374656e7420746f6b656e000000000000000000000000000000602082015250565b600061392d603183612ccc565b9150613938826138d1565b604082019050919050565b6000602082019050818103600083015261395c81613920565b9050919050565b600061396e82612cc1565b6139788185613620565b9350613988818560208601612cdd565b80840191505092915050565b60006139a08285613963565b91506139ac8284613963565b91508190509392505050565b7f4e6f7420656e6f756768204d6174696320506169640000000000000000000000600082015250565b60006139ee601583612ccc565b91506139f9826139b8565b602082019050919050565b60006020820190508181036000830152613a1d816139e1565b9050919050565b7f2e00000000000000000000000000000000000000000000000000000000000000600082015250565b6000613a5a600183613620565b9150613a6582613a24565b600182019050919050565b60008190508160005260206000209050919050565b60008154613a9281613438565b613a9c8186613620565b94506001821660008114613ab75760018114613ac857613afb565b60ff19831686528186019350613afb565b613ad185613a70565b60005b83811015613af357815481890152600182019150602081019050613ad4565b838801955050505b50505092915050565b6000613b1182858761362b565b9150613b1c82613a4d565b9150613b288284613a85565b9150819050949350505050565b6000613b418286613a85565b9150613b4d8285613963565b9150613b598284613a85565b9150819050949350505050565b7f7b226e616d65223a202200000000000000000000000000000000000000000000600082015250565b6000613b9c600a83613620565b9150613ba782613b66565b600a82019050919050565b7f222c20226465736372697074696f6e223a20224120646f6d61696e206f6e207460008201527f6865204e696e6a61206e616d652073657276696365222c2022696d616765223a60208201527f2022646174613a696d6167652f7376672b786d6c3b6261736536342c00000000604082015250565b6000613c34605c83613620565b9150613c3f82613bb2565b605c82019050919050565b7f222c226c656e677468223a220000000000000000000000000000000000000000600082015250565b6000613c80600c83613620565b9150613c8b82613c4a565b600c82019050919050565b7f227d000000000000000000000000000000000000000000000000000000000000600082015250565b6000613ccc600283613620565b9150613cd782613c96565b600282019050919050565b6000613ced82613b8f565b9150613cf98286613963565b9150613d0482613c27565b9150613d108285613963565b9150613d1b82613c73565b9150613d278284613963565b9150613d3282613cbf565b9150819050949350505050565b7f646174613a6170706c69636174696f6e2f6a736f6e3b6261736536342c000000600082015250565b6000613d75601d83613620565b9150613d8082613d3f565b601d82019050919050565b6000613d9682613d68565b9150613da28284613963565b915081905092915050565b60006040820190508181036000830152613dc78185612d21565b90508181036020830152613ddb8184612d21565b90509392505050565b7f4552433732313a206f70657261746f7220717565727920666f72206e6f6e657860008201527f697374656e7420746f6b656e0000000000000000000000000000000000000000602082015250565b6000613e40602c83612ccc565b9150613e4b82613de4565b604082019050919050565b60006020820190508181036000830152613e6f81613e33565b9050919050565b7f4552433732313a207472616e736665722066726f6d20696e636f72726563742060008201527f6f776e6572000000000000000000000000000000000000000000000000000000602082015250565b6000613ed2602583612ccc565b9150613edd82613e76565b604082019050919050565b60006020820190508181036000830152613f0181613ec5565b9050919050565b7f4552433732313a207472616e7366657220746f20746865207a65726f2061646460008201527f7265737300000000000000000000000000000000000000000000000000000000602082015250565b6000613f64602483612ccc565b9150613f6f82613f08565b604082019050919050565b60006020820190508181036000830152613f9381613f57565b9050919050565b7f4e487b7100000000000000000000000000000000000000000000000000000000600052601160045260246000fd5b6000613fd482612d7c565b9150613fdf83612d7c565b925082821015613ff257613ff1613f9a565b5b828203905092915050565b600061400882612d7c565b915061401383612d7c565b9250827fffffffffffffffffffffffffffffffffffffffffffffffffffffffffffffffff0382111561404857614047613f9a565b5b828201905092915050565b7f4552433732313a20617070726f766520746f2063616c6c657200000000000000600082015250565b6000614089601983612ccc565b915061409482614053565b602082019050919050565b600060208201905081810360008301526140b88161407c565b9050919050565b7f4552433732313a207472616e7366657220746f206e6f6e20455243373231526560008201527f63656976657220696d706c656d656e7465720000000000000000000000000000602082015250565b600061411b603283612ccc565b9150614126826140bf565b604082019050919050565b6000602082019050818103600083015261414a8161410e565b9050919050565b7f4552433732314d657461646174613a2055524920717565727920666f72206e6f60008201527f6e6578697374656e7420746f6b656e0000000000000000000000000000000000602082015250565b60006141ad602f83612ccc565b91506141b882614151565b604082019050919050565b600060208201905081810360008301526141dc816141a0565b9050919050565b7f4e487b7100000000000000000000000000000000000000000000000000000000600052603260045260246000fd5b600061421d82612d7c565b91507fffffffffffffffffffffffffffffffffffffffffffffffffffffffffffffffff8214156142505761424f613f9a565b5b600182019050919050565b7f4e487b7100000000000000000000000000000000000000000000000000000000600052601260045260246000fd5b600061429582612d7c565b91506142a083612d7c565b9250826142b0576142af61425b565b5b828204905092915050565b60006142c682612d7c565b91506142d183612d7c565b9250826142e1576142e061425b565b5b828206905092915050565b600060808201905081810360008301526143068187612d21565b9050818103602083015261431a8186612d21565b9050818103604083015261432e8185612d21565b905061433d6060830184613152565b95945050505050565b600060408201905081810360008301526143608185612d21565b905061436f6020830184612e11565b9392505050565b600061438182612d7c565b915061438c83612d7c565b9250817fffffffffffffffffffffffffffffffffffffffffffffffffffffffffffffffff04831182151516156143c5576143c4613f9a565b5b828202905092915050565b7f45524337323155524953746f726167653a2055524920736574206f66206e6f6e60008201527f6578697374656e7420746f6b656e000000000000000000000000000000000000602082015250565b600061442c602e83612ccc565b9150614437826143d0565b604082019050919050565b6000602082019050818103600083015261445b8161441f565b9050919050565b600081519050919050565b600082825260208201905092915050565b600061448982614462565b614493818561446d565b93506144a3818560208601612cdd565b6144ac81612d10565b840191505092915050565b60006080820190506144cc6000830187612e11565b6144d96020830186612e11565b6144e66040830185613152565b81810360608301526144f8818461447e565b905095945050505050565b60008151905061451281612c32565b92915050565b60006020828403121561452e5761452d612bfc565b5b600061453c84828501614503565b91505092915050565b7f4552433732313a206d696e7420746f20746865207a65726f2061646472657373600082015250565b600061457b602083612ccc565b915061458682614545565b602082019050919050565b600060208201905081810360008301526145aa8161456e565b9050919050565b7f4552433732313a20746f6b656e20616c7265616479206d696e74656400000000600082015250565b60006145e7601c83612ccc565b91506145f2826145b1565b602082019050919050565b60006020820190508181036000830152614616816145da565b905091905056fe0a2d2d2d2d2d2d2d2d2d2d2d2d2d2d2d2d2d2d2d2d2d2d2d2d2d2d2d2d2d2d2d2d2d2d2d2d2d2d2d2d2d2d2d2d2d2d2d2d2d2d2d2d2d2d2d2d5265676973746572696e672025732e2573206f6e2074686520636f6e7472616374207769746820746f6b656e49442025642d2d2d2d2d2d2d2d2d2d2d2d2d2d2d2d2d2d2d2d2d2d2d2d2d2d2d2d2d2d2d2d2d2d2d2d2d2d2d2d2d2d2d2d2d2d2d2d2d2d2d2d2d2d2d2d0a4142434445464748494a4b4c4d4e4f505152535455565758595a6162636465666768696a6b6c6d6e6f707172737475767778797a303132333435363738392b2fa264697066735822122064d2043f89675e74587a3b8fd83490c886099a2b90b88a21ba2e9ecde7131b5764736f6c634300080a00333c73766720786d6c6e733d22687474703a2f2f7777772e77332e6f72672f323030302f737667222077696474683d2232373022206865696768743d22323730222066696c6c3d226e6f6e65223e3c706174682066696c6c3d2275726c282342292220643d224d302030683237307632373048307a222f3e3c646566733e3c66696c7465722069643d22412220636f6c6f722d696e746572706f6c6174696f6e2d66696c746572733d2273524742222066696c746572556e6974733d227573657253706163654f6e55736522206865696768743d22323730222077696474683d22323730223e3c666544726f70536861646f772064783d2230222064793d22312220737464446576696174696f6e3d22322220666c6f6f642d6f7061636974793d222e323235222077696474683d223230302522206865696768743d2232303025222f3e3c2f66696c7465723e3c2f646566733e3c7061746820643d224d37322e3836332034322e393439632d2e3636382d2e3338372d312e3432362d2e35392d322e3139372d2e3539732d312e3532392e3230342d322e3139372e35396c2d31302e30383120362e3033322d362e383520332e3933342d31302e30383120362e303332632d2e3636382e3338372d312e3432362e35392d322e3139372e3539732d312e3532392d2e3230342d322e3139372d2e35396c2d382e3031332d342e37323161342e353220342e35322030203020312d312e3538392d312e363136632d2e3338342d2e3636352d2e3539342d312e3431382d2e3630382d322e313837762d392e3331632d2e3031332d2e3737352e3138352d312e3533382e3537322d322e32303861342e323520342e323520302030203120312e3632352d312e3539356c372e3838342d342e3539632e3636382d2e33383720312e3432362d2e353920322e3139372d2e353973312e3532392e32303420322e3139372e35396c372e38383420342e353961342e353220342e353220302030203120312e35383920312e363136632e3338342e3636352e35393420312e3431382e36303820322e31383776362e3033326c362e38352d342e303635762d362e303332632e3031332d2e3737352d2e3138352d312e3533382d2e3537322d322e32303861342e323520342e32352030203020302d312e3632352d312e3539354c34312e3435362032342e3539632d2e3636382d2e3338372d312e3432362d2e35392d322e3139372d2e3539732d312e3532392e3230342d322e3139372e35396c2d31342e38363420382e36353561342e323520342e32352030203020302d312e36323520312e353935632d2e3338372e36372d2e35383520312e3433342d2e35373220322e3230387631372e343431632d2e3031332e3737352e31383520312e3533382e35373220322e32303861342e323520342e323520302030203020312e36323520312e3539356c31342e38363420382e363535632e3636382e33383720312e3432362e353920322e3139372e353973312e3532392d2e32303420322e3139372d2e35396c31302e3038312d352e39303120362e38352d342e3036352031302e3038312d352e393031632e3636382d2e33383720312e3432362d2e353920322e3139372d2e353973312e3532392e32303420322e3139372e35396c372e38383420342e353961342e353220342e353220302030203120312e35383920312e363136632e3338342e3636352e35393420312e3431382e36303820322e31383776392e333131632e3031332e3737352d2e31383520312e3533382d2e35373220322e32303861342e323520342e32352030203020312d312e36323520312e3539356c2d372e38383420342e373231632d2e3636382e3338372d312e3432362e35392d322e3139372e3539732d312e3532392d2e3230342d322e3139372d2e35396c2d372e3838342d342e353961342e353220342e35322030203020312d312e3538392d312e363136632d2e3338352d2e3636352d2e3539342d312e3431382d2e3630382d322e313837762d362e3033326c2d362e383520342e30363576362e303332632d2e3031332e3737352e31383520312e3533382e35373220322e32303861342e323520342e323520302030203020312e36323520312e3539356c31342e38363420382e363535632e3636382e33383720312e3432362e353920322e3139372e353973312e3532392d2e32303420322e3139372d2e35396c31342e3836342d382e363535632e3635372d2e33393420312e3230342d2e393520312e3538392d312e363136732e3539342d312e3431382e3630392d322e3138375635352e353338632e3031332d2e3737352d2e3138352d312e3533382d2e3537322d322e32303861342e323520342e32352030203020302d312e3632352d312e3539356c2d31342e3939332d382e3738367a222066696c6c3d2223666666222f3e3c646566733e3c6c696e6561724772616469656e742069643d2242222078313d2230222079313d2230222078323d22323730222079323d2232373022206772616469656e74556e6974733d227573657253706163654f6e557365223e3c73746f702073746f702d636f6c6f723d2223636235656565222f3e3c73746f70206f66667365743d2231222073746f702d636f6c6f723d2223306364376534222073746f702d6f7061636974793d222e3939222f3e3c2f6c696e6561724772616469656e743e3c2f646566733e3c7465787420783d2233322e352220793d223233312220666f6e742d73697a653d223237222066696c6c3d2223666666222066696c7465723d2275726c282341292220666f6e742d66616d696c793d22506c7573204a616b617274612053616e732c44656a6156752053616e732c4e6f746f20436f6c6f7220456d6f6a692c4170706c6520436f6c6f7220456d6f6a692c73616e732d73657269662220666f6e742d7765696768743d22626f6c64223e",
    "linkReferences": {},
    "deployedLinkReferences": {}
}